{
    "contractName": "supplyChain",
    "abi": [
        {
            "constant": true,
            "inputs": [],
            "name": "p_id",
            "outputs": [
                {
                    "internalType": "uint32",
                    "name": "",
                    "type": "uint32"
                }
            ],
            "payable": false,
            "stateMutability": "view",
            "type": "function"
        },
        {
            "constant": true,
            "inputs": [
                {
                    "internalType": "uint32",
                    "name": "",
                    "type": "uint32"
                },
                {
                    "internalType": "uint256",
                    "name": "",
                    "type": "uint256"
                }
            ],
            "name": "productTrack",
            "outputs": [
                {
                    "internalType": "uint32",
                    "name": "",
                    "type": "uint32"
                }
            ],
            "payable": false,
            "stateMutability": "view",
            "type": "function"
        },
        {
            "constant": true,
            "inputs": [
                {
                    "internalType": "uint32",
                    "name": "_productId",
                    "type": "uint32"
                }
            ],
            "name": "getProductDetails",
            "outputs": [
                {
                    "internalType": "string",
                    "name": "",
                    "type": "string"
                },
                {
                    "internalType": "string",
                    "name": "",
                    "type": "string"
                },
                {
                    "internalType": "string",
                    "name": "",
                    "type": "string"
                },
                {
                    "internalType": "uint32",
                    "name": "",
                    "type": "uint32"
                },
                {
                    "internalType": "address",
                    "name": "",
                    "type": "address"
                },
                {
                    "internalType": "uint32",
                    "name": "",
                    "type": "uint32"
                }
            ],
            "payable": false,
            "stateMutability": "view",
            "type": "function"
        },
        {
            "constant": true,
            "inputs": [
                {
                    "internalType": "uint32",
                    "name": "_p_id",
                    "type": "uint32"
                }
            ],
            "name": "getParticipantDetails",
            "outputs": [
                {
                    "internalType": "string",
                    "name": "",
                    "type": "string"
                },
                {
                    "internalType": "address",
                    "name": "",
                    "type": "address"
                },
                {
                    "internalType": "string",
                    "name": "",
                    "type": "string"
                }
            ],
            "payable": false,
            "stateMutability": "view",
            "type": "function"
        },
        {
            "constant": false,
            "inputs": [
                {
                    "internalType": "uint32",
                    "name": "_user1Id",
                    "type": "uint32"
                },
                {
                    "internalType": "uint32",
                    "name": "_user2Id",
                    "type": "uint32"
                },
                {
                    "internalType": "uint32",
                    "name": "_prodId",
                    "type": "uint32"
                }
            ],
            "name": "transferToOwner",
            "outputs": [
                {
                    "internalType": "bool",
                    "name": "",
                    "type": "bool"
                }
            ],
            "payable": false,
            "stateMutability": "nonpayable",
            "type": "function"
        },
        {
            "constant": true,
            "inputs": [
                {
                    "internalType": "uint256",
                    "name": "",
                    "type": "uint256"
                }
            ],
            "name": "products",
            "outputs": [
                {
                    "internalType": "string",
                    "name": "modelNumber",
                    "type": "string"
                },
                {
                    "internalType": "string",
                    "name": "partNumber",
                    "type": "string"
                },
                {
                    "internalType": "string",
                    "name": "serialNumber",
                    "type": "string"
                },
                {
                    "internalType": "address",
                    "name": "productOwner",
                    "type": "address"
                },
                {
                    "internalType": "uint32",
                    "name": "cost",
                    "type": "uint32"
                },
                {
                    "internalType": "uint32",
                    "name": "mfgTimeStamp",
                    "type": "uint32"
                }
            ],
            "payable": false,
            "stateMutability": "view",
            "type": "function"
        },
        {
            "constant": true,
            "inputs": [
                {
                    "internalType": "uint32",
                    "name": "",
                    "type": "uint32"
                }
            ],
            "name": "participants",
            "outputs": [
                {
                    "internalType": "string",
                    "name": "userName",
                    "type": "string"
                },
                {
                    "internalType": "string",
                    "name": "password",
                    "type": "string"
                },
                {
                    "internalType": "string",
                    "name": "participantType",
                    "type": "string"
                },
                {
                    "internalType": "address",
                    "name": "participantAddress",
                    "type": "address"
                }
            ],
            "payable": false,
            "stateMutability": "view",
            "type": "function"
        },
        {
            "constant": true,
            "inputs": [
                {
                    "internalType": "uint32",
                    "name": "",
                    "type": "uint32"
                }
            ],
            "name": "registrations",
            "outputs": [
                {
                    "internalType": "uint32",
                    "name": "productId",
                    "type": "uint32"
                },
                {
                    "internalType": "uint32",
                    "name": "ownerId",
                    "type": "uint32"
                },
                {
                    "internalType": "uint32",
                    "name": "trxTimeStamp",
                    "type": "uint32"
                },
                {
                    "internalType": "address",
                    "name": "productOwner",
                    "type": "address"
                }
            ],
            "payable": false,
            "stateMutability": "view",
            "type": "function"
        },
        {
            "constant": false,
            "inputs": [
                {
                    "internalType": "string",
                    "name": "_name",
                    "type": "string"
                },
                {
                    "internalType": "string",
                    "name": "_pass",
                    "type": "string"
                },
                {
                    "internalType": "address",
                    "name": "_pAdd",
                    "type": "address"
                },
                {
                    "internalType": "string",
                    "name": "_pType",
                    "type": "string"
                }
            ],
            "name": "createParticipant",
            "outputs": [
                {
                    "internalType": "uint32",
                    "name": "",
                    "type": "uint32"
                }
            ],
            "payable": false,
            "stateMutability": "nonpayable",
            "type": "function"
        },
        {
            "constant": true,
            "inputs": [],
            "name": "r_id",
            "outputs": [
                {
                    "internalType": "uint32",
                    "name": "",
                    "type": "uint32"
                }
            ],
            "payable": false,
            "stateMutability": "view",
            "type": "function"
        },
        {
            "constant": true,
            "inputs": [
                {
                    "internalType": "uint32",
                    "name": "_prodId",
                    "type": "uint32"
                }
            ],
            "name": "getProductTrack",
            "outputs": [
                {
                    "internalType": "uint32[]",
                    "name": "",
                    "type": "uint32[]"
                }
            ],
            "payable": false,
            "stateMutability": "view",
            "type": "function"
        },
        {
            "constant": true,
            "inputs": [
                {
                    "internalType": "uint32",
                    "name": "_regId",
                    "type": "uint32"
                }
            ],
            "name": "getRegistrationDetails",
            "outputs": [
                {
                    "internalType": "uint32",
                    "name": "",
                    "type": "uint32"
                },
                {
                    "internalType": "uint32",
                    "name": "",
                    "type": "uint32"
                },
                {
                    "internalType": "address",
                    "name": "",
                    "type": "address"
                },
                {
                    "internalType": "uint32",
                    "name": "",
                    "type": "uint32"
                }
            ],
            "payable": false,
            "stateMutability": "view",
            "type": "function"
        },
        {
            "constant": true,
            "inputs": [],
            "name": "u_id",
            "outputs": [
                {
                    "internalType": "uint32",
                    "name": "",
                    "type": "uint32"
                }
            ],
            "payable": false,
            "stateMutability": "view",
            "type": "function"
        },
        {
            "constant": false,
            "inputs": [
                {
                    "internalType": "uint32",
                    "name": "_ownerId",
                    "type": "uint32"
                },
                {
                    "internalType": "string",
                    "name": "_modelNumber",
                    "type": "string"
                },
                {
                    "internalType": "string",
                    "name": "_partNumber",
                    "type": "string"
                },
                {
                    "internalType": "string",
                    "name": "_serialNumber",
                    "type": "string"
                },
                {
                    "internalType": "uint32",
                    "name": "_productCost",
                    "type": "uint32"
                }
            ],
            "name": "createProduct",
            "outputs": [
                {
                    "internalType": "uint32",
                    "name": "",
                    "type": "uint32"
                }
            ],
            "payable": false,
            "stateMutability": "nonpayable",
            "type": "function"
        },
        {
            "anonymous": false,
            "inputs": [
                {
                    "indexed": false,
                    "internalType": "uint256",
                    "name": "productId",
                    "type": "uint256"
                }
            ],
            "name": "Transfer",
            "type": "event"
        }
    ],
    "bytecode": "6080604052600080546001600160601b031916905534801561002057600080fd5b50611c23806100306000396000f3fe608060405234801561001057600080fd5b50600436106100ea5760003560e01c806383a32c551161008c578063a8997d2e11610066578063a8997d2e14610843578063b9d93d5f146108b6578063e9f06d2b14610912578063f79e547b1461091a576100ea565b806383a32c551461061f57806389138c001461067c5780639dfb56ac1461083b576100ea565b80635617f01e116100c85780635617f01e146102c55780636083b3ff146103df5780637acc0b20146104285780637d0a9ac9146104a9576100ea565b8063043ba46a146100ef5780631a0748021461011057806328d5b69a14610139575b600080fd5b6100f7610add565b6040805163ffffffff9092168252519081900360200190f35b6100f76004803603604081101561012657600080fd5b5063ffffffff8135169060200135610ae9565b61015c6004803603602081101561014f57600080fd5b503563ffffffff16610b2f565b6040805163ffffffff80861660608301526001600160a01b0385166080830152831660a082015260c080825288519082015287519091829160208084019284019160e08501918c019080838360005b838110156101c35781810151838201526020016101ab565b50505050905090810190601f1680156101f05780820380516001836020036101000a031916815260200191505b5084810383528951815289516020918201918b019080838360005b8381101561022357818101518382015260200161020b565b50505050905090810190601f1680156102505780820380516001836020036101000a031916815260200191505b5084810382528851815288516020918201918a019080838360005b8381101561028357818101518382015260200161026b565b50505050905090810190601f1680156102b05780820380516001836020036101000a031916815260200191505b50995050505050505050505060405180910390f35b6102e8600480360360208110156102db57600080fd5b503563ffffffff16610d38565b6040518080602001846001600160a01b03166001600160a01b0316815260200180602001838103835286818151815260200191508051906020019080838360005b83811015610341578181015183820152602001610329565b50505050905090810190601f16801561036e5780820380516001836020036101000a031916815260200191505b50838103825284518152845160209182019186019080838360005b838110156103a1578181015183820152602001610389565b50505050905090810190601f1680156103ce5780820380516001836020036101000a031916815260200191505b509550505050505060405180910390f35b610414600480360360608110156103f557600080fd5b5063ffffffff8135811691602081013582169160409091013516610e8c565b604080519115158252519081900360200190f35b6104456004803603602081101561043e57600080fd5b503561131c565b604080516001600160a01b038516606082015263ffffffff8481166080830152831660a082015260c080825288519082015287519091829160208084019284019160e08501918c0190808383600083156101c35781810151838201526020016101ab565b6104cc600480360360208110156104bf57600080fd5b503563ffffffff16611510565b604080516001600160a01b0383166060820152608080825286519082015285519091829160208084019284019160a08501918a019080838360005b8381101561051f578181015183820152602001610507565b50505050905090810190601f16801561054c5780820380516001836020036101000a031916815260200191505b50848103835287518152875160209182019189019080838360005b8381101561057f578181015183820152602001610567565b50505050905090810190601f1680156105ac5780820380516001836020036101000a031916815260200191505b50848103825286518152865160209182019188019080838360005b838110156105df5781810151838201526020016105c7565b50505050905090810190601f16801561060c5780820380516001836020036101000a031916815260200191505b5097505050505050505060405180910390f35b6106426004803603602081101561063557600080fd5b503563ffffffff166116ea565b6040805163ffffffff9586168152938516602085015291909316828201526001600160a01b03909216606082015290519081900360800190f35b6100f76004803603608081101561069257600080fd5b810190602081018135600160201b8111156106ac57600080fd5b8201836020820111156106be57600080fd5b803590602001918460018302840111600160201b831117156106df57600080fd5b91908080601f0160208091040260200160405190810160405280939291908181526020018383808284376000920191909152509295949360208101935035915050600160201b81111561073157600080fd5b82018360208201111561074357600080fd5b803590602001918460018302840111600160201b8311171561076457600080fd5b91908080601f01602080910402602001604051908101604052809392919081815260200183838082843760009201919091525092956001600160a01b03853516959094909350604081019250602001359050600160201b8111156107c757600080fd5b8201836020820111156107d957600080fd5b803590602001918460018302840111600160201b831117156107fa57600080fd5b91908080601f016020809104026020016040519081016040528093929190818152602001838380828437600092019190915250929550611728945050505050565b6100f76117d6565b6108666004803603602081101561085957600080fd5b503563ffffffff166117e9565b60408051602080825283518183015283519192839290830191858101910280838360005b838110156108a257818101518382015260200161088a565b505050509050019250505060405180910390f35b6108d9600480360360208110156108cc57600080fd5b503563ffffffff1661187e565b6040805163ffffffff958616815293851660208501526001600160a01b0390921683830152909216606082015290519081900360800190f35b6100f76118f9565b6100f7600480360360a081101561093057600080fd5b63ffffffff8235169190810190604081016020820135600160201b81111561095757600080fd5b82018360208201111561096957600080fd5b803590602001918460018302840111600160201b8311171561098a57600080fd5b91908080601f0160208091040260200160405190810160405280939291908181526020018383808284376000920191909152509295949360208101935035915050600160201b8111156109dc57600080fd5b8201836020820111156109ee57600080fd5b803590602001918460018302840111600160201b83111715610a0f57600080fd5b91908080601f0160208091040260200160405190810160405280939291908181526020018383808284376000920191909152509295949360208101935035915050600160201b811115610a6157600080fd5b820183602082011115610a7357600080fd5b803590602001918460018302840111600160201b83111715610a9457600080fd5b91908080601f0160208091040260200160405190810160405280939291908181526020018383808284376000920191909152509295505050903563ffffffff16915061190c9050565b60005463ffffffff1681565b60046020528160005260406000208181548110610b0257fe5b9060005260206000209060089182820401919006600402915091509054906101000a900463ffffffff1681565b63ffffffff81811660009081526001602081815260408084206003810154815483516002610100838916150260001901909216829004601f8101879004870282018701909552848152606098899889989097889788979692870195870194600160a01b84048516946001600160a01b03851694600160c01b9004169290918891830182828015610c005780601f10610bd557610100808354040283529160200191610c00565b820191906000526020600020905b815481529060010190602001808311610be357829003601f168201915b5050885460408051602060026001851615610100026000190190941693909304601f8101849004840282018401909252818152959b508a945092508401905082828015610c8e5780601f10610c6357610100808354040283529160200191610c8e565b820191906000526020600020905b815481529060010190602001808311610c7157829003601f168201915b5050875460408051602060026001851615610100026000190190941693909304601f8101849004840282018401909252818152959a5089945092508401905082828015610d1c5780601f10610cf157610100808354040283529160200191610d1c565b820191906000526020600020905b815481529060010190602001808311610cff57829003601f168201915b5050505050935095509550955095509550955091939550919395565b63ffffffff8116600090815260026020818152604080842060038101548154835161010060018316150260001901909116869004601f810186900486028201860190945283815260609695879593946001600160a01b0390931693908501928591830182828015610dea5780601f10610dbf57610100808354040283529160200191610dea565b820191906000526020600020905b815481529060010190602001808311610dcd57829003601f168201915b5050845460408051602060026001851615610100026000190190941693909304601f810184900484028201840190925281815295985086945092508401905082828015610e785780601f10610e4d57610100808354040283529160200191610e78565b820191906000526020600020905b815481529060010190602001808311610e5b57829003601f168201915b505050505090509250925092509193909250565b63ffffffff811660009081526001602052604081206003015482906001600160a01b03163314610ebb57600080fd5b610ec3611afb565b63ffffffff85166000908152600260208181526040928390208351815460a0601f60001961010060018516150201909216959095049081018490049093028101840190945260808401828152909284928491840182828015610f665780601f10610f3b57610100808354040283529160200191610f66565b820191906000526020600020905b815481529060010190602001808311610f4957829003601f168201915b50505050508152602001600182018054600181600116156101000203166002900480601f0160208091040260200160405190810160405280929190818152602001828054600181600116156101000203166002900480156110085780601f10610fdd57610100808354040283529160200191611008565b820191906000526020600020905b815481529060010190602001808311610feb57829003601f168201915b5050509183525050600282810180546040805160206001841615610100026000190190931694909404601f8101839004830285018301909152808452938101939083018282801561109a5780601f1061106f5761010080835404028352916020019161109a565b820191906000526020600020905b81548152906001019060200180831161107d57829003601f168201915b505050505081526020016003820160009054906101000a90046001600160a01b03166001600160a01b03166001600160a01b0316815250509050600080600881819054906101000a900463ffffffff168092919060010191906101000a81548163ffffffff021916908363ffffffff160217905550905084600360008363ffffffff1663ffffffff16815260200190815260200160002060000160006101000a81548163ffffffff021916908363ffffffff1602179055508160600151600360008363ffffffff1663ffffffff168152602001908152602001600020600001600c6101000a8154816001600160a01b0302191690836001600160a01b0316021790555085600360008363ffffffff1663ffffffff16815260200190815260200160002060000160046101000a81548163ffffffff021916908363ffffffff16021790555042600360008363ffffffff1663ffffffff16815260200190815260200160002060000160086101000a81548163ffffffff021916908363ffffffff1602179055508160600151600160008763ffffffff16815260200190815260200160002060030160006101000a8154816001600160a01b0302191690836001600160a01b03160217905550600460008663ffffffff1663ffffffff16815260200190815260200160002081908060018154018082558091505090600182039060005260206000209060089182820401919006600402909192909190916101000a81548163ffffffff021916908363ffffffff160217905550507f248dd4076d0a389d795107efafd558ce7f31ae37b441ccb9a599c60868f480d585604051808263ffffffff16815260200191505060405180910390a15060019695505050505050565b60016020818152600092835260409283902080548451600294821615610100026000190190911693909304601f81018390048302840183019094528383529283918301828280156113ae5780601f10611383576101008083540402835291602001916113ae565b820191906000526020600020905b81548152906001019060200180831161139157829003601f168201915b505050505090806001018054600181600116156101000203166002900480601f01602080910402602001604051908101604052809291908181526020018280546001816001161561010002031660029004801561144c5780601f106114215761010080835404028352916020019161144c565b820191906000526020600020905b81548152906001019060200180831161142f57829003601f168201915b50505060028085018054604080516020601f60001961010060018716150201909416959095049283018590048502810185019091528181529596959450909250908301828280156114de5780601f106114b3576101008083540402835291602001916114de565b820191906000526020600020905b8154815290600101906020018083116114c157829003601f168201915b505050600390930154919250506001600160a01b0381169063ffffffff600160a01b8204811691600160c01b90041686565b600260208181526000928352604092839020805484516001821615610100026000190190911693909304601f81018390048302840183019094528383529283918301828280156115a15780601f10611576576101008083540402835291602001916115a1565b820191906000526020600020905b81548152906001019060200180831161158457829003601f168201915b505050505090806001018054600181600116156101000203166002900480601f01602080910402602001604051908101604052809291908181526020018280546001816001161561010002031660029004801561163f5780601f106116145761010080835404028352916020019161163f565b820191906000526020600020905b81548152906001019060200180831161162257829003601f168201915b50505060028085018054604080516020601f60001961010060018716150201909416959095049283018590048502810185019091528181529596959450909250908301828280156116d15780601f106116a6576101008083540402835291602001916116d1565b820191906000526020600020905b8154815290600101906020018083116116b457829003601f168201915b505050600390930154919250506001600160a01b031684565b60036020526000908152604090205463ffffffff80821691600160201b8104821691600160401b82041690600160601b90046001600160a01b031684565b6000805467ffffffff00000000198116600160201b9182900463ffffffff908116600181019091169092021782558082526002602090815260408320875161177292890190611b2c565b5063ffffffff81166000908152600260209081526040909120865161179f92600190920191880190611b2c565b5063ffffffff8116600090815260026020818152604090922085516117cc93919092019190860190611b2c565b5095945050505050565b600054600160401b900463ffffffff1681565b63ffffffff811660009081526004602090815260409182902080548351818402810184019094528084526060939283018282801561187257602002820191906000526020600020906000905b82829054906101000a900463ffffffff1663ffffffff16815260200190600401906020826003010492830192600103820291508084116118355790505b50505050509050919050565b60008060008061188c611baa565b5050505063ffffffff91821660009081526003602090815260409182902082516080810184529054808616808352600160201b82048716938301849052600160401b8204909616938201849052600160601b90046001600160a01b03166060909101819052939490939250565b600054600160201b900463ffffffff1681565b604080516c4d616e75666163747572696e6760981b8152815190819003600d01812063ffffffff88166000908152600260208181529482208101805492959394909301918291849160001961010060018316150201160480156119a65780601f106119845761010080835404028352918201916119a6565b820191906000526020600020905b815481529060010190602001808311611992575b5050915050604051602081830303815290604052805190602001201415611aee576000805463ffffffff198116600163ffffffff9283168181019093169190911783558183526020908152604090922087519192611a079290890190611b2c565b5063ffffffff811660009081526001602081815260409092208751611a3493919092019190880190611b2c565b5063ffffffff811660009081526001602090815260409091208551611a6192600290920191870190611b2c565b5063ffffffff808216600081815260016020818152604080842060039081018054888c16600160a01b0263ffffffff60a01b19909116178082558f8916875260028552928620909101549590945291905242909316600160c01b0263ffffffff60c01b196001600160a01b03199094166001600160a01b0390931692909217929092161790559050611af2565b5060005b95945050505050565b604051806080016040528060608152602001606081526020016060815260200160006001600160a01b031681525090565b828054600181600116156101000203166002900490600052602060002090601f016020900481019282601f10611b6d57805160ff1916838001178555611b9a565b82800160010185558215611b9a579182015b82811115611b9a578251825591602001919060010190611b7f565b50611ba6929150611bd1565b5090565b60408051608081018252600080825260208201819052918101829052606081019190915290565b611beb91905b80821115611ba65760008155600101611bd7565b9056fea265627a7a7231582081ddedab7e5d9eeb55a4f1d5e0859e37b4ad963e2ed4d4ccea669423f7df487964736f6c634300050b0032",
    "sourcePath": "c:/Users/jimmy/Documents/SupplyChain/SupplyChain.sol",
    "compiler": {
        "name": "solc",
        "version": "0.5.11+commit.c082d0b4"
    },
    "functionHashes": {
        "createParticipant(string,string,address,string)": "89138c00",
        "createProduct(uint32,string,string,string,uint32)": "f79e547b",
        "getParticipantDetails(uint32)": "5617f01e",
        "getProductDetails(uint32)": "28d5b69a",
        "getProductTrack(uint32)": "a8997d2e",
        "getRegistrationDetails(uint32)": "b9d93d5f",
        "p_id()": "043ba46a",
        "participants(uint32)": "7d0a9ac9",
        "productTrack(uint32,uint256)": "1a074802",
        "products(uint256)": "7acc0b20",
        "r_id()": "9dfb56ac",
        "registrations(uint32)": "83a32c55",
        "transferToOwner(uint32,uint32,uint32)": "6083b3ff",
        "u_id()": "e9f06d2b"
    },
    "gasEstimates": {
        "creation": {
            "codeDepositCost": "1440600",
            "executionCost": "21736",
            "totalCost": "1462336"
        },
        "external": {
            "createParticipant(string,string,address,string)": "infinite",
            "createProduct(uint32,string,string,string,uint32)": "infinite",
            "getParticipantDetails(uint32)": "infinite",
            "getProductDetails(uint32)": "infinite",
            "getProductTrack(uint32)": "infinite",
            "getRegistrationDetails(uint32)": "1040",
            "p_id()": "437",
            "participants(uint32)": "infinite",
            "productTrack(uint32,uint256)": "2541",
            "products(uint256)": "infinite",
            "r_id()": "497",
            "registrations(uint32)": "736",
            "transferToOwner(uint32,uint32,uint32)": "infinite",
            "u_id()": "496"
        }
    }
}